{
  "_format": "hh-sol-artifact-1",
  "contractName": "ERC4973",
  "sourceName": "contracts/ERC4973.sol",
  "abi": [
    {
      "inputs": [
        {
          "internalType": "string",
          "name": "name_",
          "type": "string"
        },
        {
          "internalType": "string",
          "name": "symbol_",
          "type": "string"
        }
      ],
      "stateMutability": "nonpayable",
      "type": "constructor"
    },
    {
      "anonymous": false,
      "inputs": [
        {
          "indexed": true,
          "internalType": "address",
          "name": "_to",
          "type": "address"
        },
        {
          "indexed": true,
          "internalType": "uint256",
          "name": "_tokenId",
          "type": "uint256"
        }
      ],
      "name": "Attest",
      "type": "event"
    },
    {
      "anonymous": false,
      "inputs": [
        {
          "indexed": true,
          "internalType": "address",
          "name": "_to",
          "type": "address"
        },
        {
          "indexed": true,
          "internalType": "uint256",
          "name": "_tokenId",
          "type": "uint256"
        }
      ],
      "name": "Revoke",
      "type": "event"
    },
    {
      "inputs": [
        {
          "internalType": "uint256",
          "name": "_tokenId",
          "type": "uint256"
        }
      ],
      "name": "burn",
      "outputs": [],
      "stateMutability": "nonpayable",
      "type": "function"
    },
    {
      "inputs": [],
      "name": "count",
      "outputs": [
        {
          "internalType": "uint256",
          "name": "",
          "type": "uint256"
        }
      ],
      "stateMutability": "view",
      "type": "function"
    },
    {
      "inputs": [
        {
          "internalType": "address",
          "name": "_issuee",
          "type": "address"
        },
        {
          "internalType": "string",
          "name": "_uri",
          "type": "string"
        }
      ],
      "name": "issue",
      "outputs": [],
      "stateMutability": "nonpayable",
      "type": "function"
    },
    {
      "inputs": [],
      "name": "name",
      "outputs": [
        {
          "internalType": "string",
          "name": "",
          "type": "string"
        }
      ],
      "stateMutability": "view",
      "type": "function"
    },
    {
      "inputs": [],
      "name": "owner",
      "outputs": [
        {
          "internalType": "address",
          "name": "",
          "type": "address"
        }
      ],
      "stateMutability": "view",
      "type": "function"
    },
    {
      "inputs": [
        {
          "internalType": "uint256",
          "name": "tokenId",
          "type": "uint256"
        }
      ],
      "name": "ownerOf",
      "outputs": [
        {
          "internalType": "address",
          "name": "",
          "type": "address"
        }
      ],
      "stateMutability": "view",
      "type": "function"
    },
    {
      "inputs": [
        {
          "internalType": "bytes4",
          "name": "interfaceId",
          "type": "bytes4"
        }
      ],
      "name": "supportsInterface",
      "outputs": [
        {
          "internalType": "bool",
          "name": "",
          "type": "bool"
        }
      ],
      "stateMutability": "view",
      "type": "function"
    },
    {
      "inputs": [],
      "name": "symbol",
      "outputs": [
        {
          "internalType": "string",
          "name": "",
          "type": "string"
        }
      ],
      "stateMutability": "view",
      "type": "function"
    },
    {
      "inputs": [
        {
          "internalType": "uint256",
          "name": "tokenId",
          "type": "uint256"
        }
      ],
      "name": "tokenURI",
      "outputs": [
        {
          "internalType": "string",
          "name": "",
          "type": "string"
        }
      ],
      "stateMutability": "view",
      "type": "function"
    }
  ],
  "bytecode": "0x608060405260006003553480156200001657600080fd5b50604051620014dc380380620014dc83398181016040528101906200003c9190620001d9565b816000908051906020019062000054929190620000b7565b5080600190805190602001906200006d929190620000b7565b5033600260006101000a81548173ffffffffffffffffffffffffffffffffffffffff021916908373ffffffffffffffffffffffffffffffffffffffff1602179055505050620003bc565b828054620000c590620002e1565b90600052602060002090601f016020900481019282620000e9576000855562000135565b82601f106200010457805160ff191683800117855562000135565b8280016001018555821562000135579182015b828111156200013457825182559160200191906001019062000117565b5b50905062000144919062000148565b5090565b5b808211156200016357600081600090555060010162000149565b5090565b60006200017e620001788462000275565b6200024c565b9050828152602081018484840111156200019757600080fd5b620001a4848285620002ab565b509392505050565b600082601f830112620001be57600080fd5b8151620001d084826020860162000167565b91505092915050565b60008060408385031215620001ed57600080fd5b600083015167ffffffffffffffff8111156200020857600080fd5b6200021685828601620001ac565b925050602083015167ffffffffffffffff8111156200023457600080fd5b6200024285828601620001ac565b9150509250929050565b6000620002586200026b565b905062000266828262000317565b919050565b6000604051905090565b600067ffffffffffffffff8211156200029357620002926200037c565b5b6200029e82620003ab565b9050602081019050919050565b60005b83811015620002cb578082015181840152602081019050620002ae565b83811115620002db576000848401525b50505050565b60006002820490506001821680620002fa57607f821691505b602082108114156200031157620003106200034d565b5b50919050565b6200032282620003ab565b810181811067ffffffffffffffff821117156200034457620003436200037c565b5b80604052505050565b7f4e487b7100000000000000000000000000000000000000000000000000000000600052602260045260246000fd5b7f4e487b7100000000000000000000000000000000000000000000000000000000600052604160045260246000fd5b6000601f19601f8301169050919050565b61111080620003cc6000396000f3fe608060405234801561001057600080fd5b50600436106100935760003560e01c806342966c681161006657806342966c68146101205780636352211e1461013c5780638da5cb5b1461016c57806395d89b411461018a578063c87b56dd146101a857610093565b806301ffc9a71461009857806304b444d9146100c857806306661abd146100e457806306fdde0314610102575b600080fd5b6100b260048036038101906100ad9190610b94565b6101d8565b6040516100bf9190610d16565b60405180910390f35b6100e260048036038101906100dd9190610b3c565b6102ba565b005b6100ec610378565b6040516100f99190610df3565b60405180910390f35b61010a61037e565b6040516101179190610d31565b60405180910390f35b61013a60048036038101906101359190610bbd565b610410565b005b61015660048036038101906101519190610bbd565b6104ea565b6040516101639190610cfb565b60405180910390f35b61017461059c565b6040516101819190610cfb565b60405180910390f35b6101926105c2565b60405161019f9190610d31565b60405180910390f35b6101c260048036038101906101bd9190610bbd565b610654565b6040516101cf9190610d31565b60405180910390f35b60007f5b5e139f000000000000000000000000000000000000000000000000000000007bffffffffffffffffffffffffffffffffffffffffffffffffffffffff1916827bffffffffffffffffffffffffffffffffffffffffffffffffffffffff191614806102a357507f21c44d76000000000000000000000000000000000000000000000000000000007bffffffffffffffffffffffffffffffffffffffffffffffffffffffff1916827bffffffffffffffffffffffffffffffffffffffffffffffffffffffff1916145b806102b357506102b282610741565b5b9050919050565b600260009054906101000a900473ffffffffffffffffffffffffffffffffffffffff1673ffffffffffffffffffffffffffffffffffffffff163373ffffffffffffffffffffffffffffffffffffffff161461034a576040517f08c379a000000000000000000000000000000000000000000000000000000000815260040161034190610d93565b60405180910390fd5b6103588360035484846107ab565b5060016003600082825461036c9190610e2a565b92505081905550505050565b60035481565b60606000805461038d90610f27565b80601f01602080910402602001604051908101604052809291908181526020018280546103b990610f27565b80156104065780601f106103db57610100808354040283529160200191610406565b820191906000526020600020905b8154815290600101906020018083116103e957829003601f168201915b5050505050905090565b3373ffffffffffffffffffffffffffffffffffffffff16610430826104ea565b73ffffffffffffffffffffffffffffffffffffffff16148061049f5750600260009054906101000a900473ffffffffffffffffffffffffffffffffffffffff1673ffffffffffffffffffffffffffffffffffffffff163373ffffffffffffffffffffffffffffffffffffffff16145b6104de576040517f08c379a00000000000000000000000000000000000000000000000000000000081526004016104d590610d53565b60405180910390fd5b6104e7816108ba565b50565b6000806004600084815260200190815260200160002060009054906101000a900473ffffffffffffffffffffffffffffffffffffffff169050600073ffffffffffffffffffffffffffffffffffffffff168173ffffffffffffffffffffffffffffffffffffffff161415610593576040517f08c379a000000000000000000000000000000000000000000000000000000000815260040161058a90610db3565b60405180910390fd5b80915050919050565b600260009054906101000a900473ffffffffffffffffffffffffffffffffffffffff1681565b6060600180546105d190610f27565b80601f01602080910402602001604051908101604052809291908181526020018280546105fd90610f27565b801561064a5780601f1061061f5761010080835404028352916020019161064a565b820191906000526020600020905b81548152906001019060200180831161062d57829003601f168201915b5050505050905090565b606061065f82610964565b61069e576040517f08c379a000000000000000000000000000000000000000000000000000000000815260040161069590610dd3565b60405180910390fd5b6005600083815260200190815260200160002080546106bc90610f27565b80601f01602080910402602001604051908101604052809291908181526020018280546106e890610f27565b80156107355780601f1061070a57610100808354040283529160200191610735565b820191906000526020600020905b81548152906001019060200180831161071857829003601f168201915b50505050509050919050565b60007f01ffc9a7000000000000000000000000000000000000000000000000000000007bffffffffffffffffffffffffffffffffffffffffffffffffffffffff1916827bffffffffffffffffffffffffffffffffffffffffffffffffffffffff1916149050919050565b60006107b684610964565b156107f6576040517f08c379a00000000000000000000000000000000000000000000000000000000081526004016107ed90610d73565b60405180910390fd5b846004600086815260200190815260200160002060006101000a81548173ffffffffffffffffffffffffffffffffffffffff021916908373ffffffffffffffffffffffffffffffffffffffff160217905550828260056000878152602001908152602001600020919061086a9291906109d0565b50838573ffffffffffffffffffffffffffffffffffffffff167fe9274a84b19e9428826de6bae8c48329354f8f0e73f771b97cae2d9dccd45a2760405160405180910390a3839050949350505050565b60006108c5826104ea565b90506004600083815260200190815260200160002060006101000a81549073ffffffffffffffffffffffffffffffffffffffff021916905560056000838152602001908152602001600020600061091c9190610a56565b818173ffffffffffffffffffffffffffffffffffffffff167fec9ab91322523c899ede7830ec9bfc992b5981cdcc27b91162fb23de5791117b60405160405180910390a35050565b60008073ffffffffffffffffffffffffffffffffffffffff166004600084815260200190815260200160002060009054906101000a900473ffffffffffffffffffffffffffffffffffffffff1673ffffffffffffffffffffffffffffffffffffffff1614159050919050565b8280546109dc90610f27565b90600052602060002090601f0160209004810192826109fe5760008555610a45565b82601f10610a1757803560ff1916838001178555610a45565b82800160010185558215610a45579182015b82811115610a44578235825591602001919060010190610a29565b5b509050610a529190610a96565b5090565b508054610a6290610f27565b6000825580601f10610a745750610a93565b601f016020900490600052602060002090810190610a929190610a96565b5b50565b5b80821115610aaf576000816000905550600101610a97565b5090565b600081359050610ac281611095565b92915050565b600081359050610ad7816110ac565b92915050565b60008083601f840112610aef57600080fd5b8235905067ffffffffffffffff811115610b0857600080fd5b602083019150836001820283011115610b2057600080fd5b9250929050565b600081359050610b36816110c3565b92915050565b600080600060408486031215610b5157600080fd5b6000610b5f86828701610ab3565b935050602084013567ffffffffffffffff811115610b7c57600080fd5b610b8886828701610add565b92509250509250925092565b600060208284031215610ba657600080fd5b6000610bb484828501610ac8565b91505092915050565b600060208284031215610bcf57600080fd5b6000610bdd84828501610b27565b91505092915050565b610bef81610e80565b82525050565b610bfe81610e92565b82525050565b6000610c0f82610e0e565b610c198185610e19565b9350610c29818560208601610ef4565b610c3281610fb7565b840191505092915050565b6000610c4a601b83610e19565b9150610c5582610fc8565b602082019050919050565b6000610c6d601483610e19565b9150610c7882610ff1565b602082019050919050565b6000610c90600d83610e19565b9150610c9b8261101a565b602082019050919050565b6000610cb3601c83610e19565b9150610cbe82611043565b602082019050919050565b6000610cd6601d83610e19565b9150610ce18261106c565b602082019050919050565b610cf581610eea565b82525050565b6000602082019050610d106000830184610be6565b92915050565b6000602082019050610d2b6000830184610bf5565b92915050565b60006020820190508181036000830152610d4b8184610c04565b905092915050565b60006020820190508181036000830152610d6c81610c3d565b9050919050565b60006020820190508181036000830152610d8c81610c60565b9050919050565b60006020820190508181036000830152610dac81610c83565b9050919050565b60006020820190508181036000830152610dcc81610ca6565b9050919050565b60006020820190508181036000830152610dec81610cc9565b9050919050565b6000602082019050610e086000830184610cec565b92915050565b600081519050919050565b600082825260208201905092915050565b6000610e3582610eea565b9150610e4083610eea565b9250827fffffffffffffffffffffffffffffffffffffffffffffffffffffffffffffffff03821115610e7557610e74610f59565b5b828201905092915050565b6000610e8b82610eca565b9050919050565b60008115159050919050565b60007fffffffff0000000000000000000000000000000000000000000000000000000082169050919050565b600073ffffffffffffffffffffffffffffffffffffffff82169050919050565b6000819050919050565b60005b83811015610f12578082015181840152602081019050610ef7565b83811115610f21576000848401525b50505050565b60006002820490506001821680610f3f57607f821691505b60208210811415610f5357610f52610f88565b5b50919050565b7f4e487b7100000000000000000000000000000000000000000000000000000000600052601160045260246000fd5b7f4e487b7100000000000000000000000000000000000000000000000000000000600052602260045260246000fd5b6000601f19601f8301169050919050565b7f596f752063616e2774207265766f6b65207468697320746f6b656e0000000000600082015250565b7f6d696e743a20746f6b656e494420657869737473000000000000000000000000600082015250565b7f4e6f7420746865206f776e657200000000000000000000000000000000000000600082015250565b7f6f776e65724f663a20746f6b656e20646f65736e277420657869737400000000600082015250565b7f746f6b656e5552493a20746f6b656e20646f65736e2774206578697374000000600082015250565b61109e81610e80565b81146110a957600080fd5b50565b6110b581610e9e565b81146110c057600080fd5b50565b6110cc81610eea565b81146110d757600080fd5b5056fea2646970667358221220401d64b1b142761434850cf20cf864f6700a6c868bd4605026f670b4631a852d64736f6c63430008040033",
  "linkReferences": {},
  "deployedLinkReferences": {}
}